:0300000002025F9A
:0C025F00787FE4F6D8FD75816C0202A6E1
:1007C900E4F56BAF6B120751056BE56BC3940A40F7
:1007D900F2E4F56775C804F5C975CDF875CBF875F8
:0907E900CC3075CA30D2ADD2CA81
:0107F20022E4
:03088400D2AF22CE
:03002B000202EBE3
:1002EB00C0E0C0F0C0D075D000C000C004C005C0D5
:0102FB0007FB
:1002FC00C2CFE4FFEF75F007A42421F8E6FC08E672
:10030C004C6046EF75F007A42423F8E6FC08E64C95
:10031C007028EF75F007A42427F806EF75F007A4F2
:10032C002425F8E6FC08E6FD4C601EEF75F007A4EA
:10033C002423F8A60408A605800FEF75F007A42463
:0D034C0023F808E616187001160FBF0AA767
:0F035900D007D005D004D000D0D0D0F0D0E03203
:1007010020323031332D31322D31392054485520AA
:10071100002020202031323A35303A30302020205C
:1007210020001F1C1F1E1F1E1F1F1E1F1E1F7E7D40
:100731007B77BEBDBBB7DEDDDBD7EEEDEBE7EED4FD
:10074100BDB29F8D7E776A5E594F463F3B357A1128
:0B084E000917E7000000000000000098
:10079A00C2A38F807F057E001207ABD2A37F057E9E
:0107AA00004E
:1007AB00D3EF9400EE940040147D7D7C00ED1D7022
:0D07BB00011CED4C70F7EF1F70E61E80E38F
:0107C800220E
:04086A00EA2480FFFD
:08086E00C2A412079AC2A322E2
:05085D001208627F5546
:08086200D2A412079AC2A322DE
:10065400E4F508C2A3750B32750C0C75090D750D04
:100664000C750F137510057F3812086E7F0C120875
:100674006E7F0612086E7F0112086E7F8012086E6C
:10068400E4FBEB90070193FF1208621207A70BBB70
:100694000FF07FC012086EE4FBEB90071293FF1279
:0906A40008621207A70BBB0FF05E
:0106AD00222A
:0407F300AD0A7F0AC2
:1007F700ED75F00A84FBED75F00A84AAF0EF24C0CA
:10080700FF12086EEB2430FF120862EA2430FF0261
:02081700086275
:04081900AD0F7F0997
:10081D00ED75F00A84FBED75F00A84AAF0EF2480E3
:10082D00FF12086EEB2430FF120862EA2430FF023B
:02083D0008624F
:0401D200AD107F0CE1
:1001D600AB05AA07BB010D12086A7F5312085D7FA3
:1001E6004E120862BB021212086A7F4D1208627F25
:1001F6004F1208627F4E120862BB030D12086A7F17
:100206005412085D7F45120862BB041212086A7F09
:10021600571208627F451208627F44120862BB05C6
:100226000D12086A7F541208627F4812085DBB06E9
:100236001212086A7F461208627F521208627F49CC
:10024600120862EB701212086A7F531208627F541A
:090256001208627F4112086222C5
:1004CA00C2A520A065051630A0FD750801E516B481
:1004DA00010A7FCB12086E7F0F12086EE516B4026E
:1004EA00057FC812086EE516B403057FC512086EAB
:1004FA00E516B404057F8C12086EE516B405057F6F
:10050A008A12086EE516B406057F8712086EE5168C
:10051A00B407057F8412086EE516B4080DE4F516D3
:0B052A00F5088508907F0C12086E2277
:10002E00E508640160030201D1E51670030201D1F7
:10003E0030A1030201121207A730A10302011230F0
:10004E00A1FDE516B40112050AE50AB43C03E4F578
:10005E000A1207F37FCB12086EE516B40216050BD3
:10006E00E50BB43C03E4F50BAD0B7F071207F77FEE
:10007E00C812086EE516B40316050CE50CB4180389
:10008E00E4F50CAD0C7F041207F77FC512086EE580
:10009E0016B404120510E510B40703E4F5101201AE
:1000AE00D27F8C12086EE51664057022050FE50DE1
:1000BE00900722932401FFE433FEE50FB50707E412
:1000CE00B50603750F011208197F8912086EE51621
:1000DE00B40616050DE50DB40D03750D01AD0D7FBE
:1000EE000612081D7F8612086EE516B4071605095E
:1000FE00E509B46403E4F509AD097F0312081D7F19
:10010E008312086E30A2030201D11207A730A20398
:10011E000201D130A2FDE516B40112150AE50AB4AA
:10012E00FF03750A3B1207F37FCA12086EE516B479
:10013E000216150BE50BB4FF03750B3BAD0B7F07DA
:10014E001207F77FC712086EE516B40316150CE5F5
:10015E000CB4FF03750C17AD0C7F041207F77FC4A8
:10016E0012086EE516B404121510E510B4FF0375EF
:10017E0010071201D27F8C12086EE516B40513D546
:10018E000F08E50D90072293F50F1208197F8912BB
:10019E00086EE516B40612D50D03750D0CAD0D7F68
:1001AE000612081D7F8612086EE516B40715E509BE
:1001BE0070037509641509AD097F0312081D7F834D
:0401CE0012086E2283
:1003E200E5087073050AE50A643C7068F50A050BB6
:1003F200E50B643C7057F50BC2B1120368D2B1052C
:100402000CE50C6418703FF50C050F0510E50F6440
:100412001F7025750F01050DE50DB40D14750D0145
:100422000509E509B46403E4F509AD097F0312087F
:100432001DAD0D7F0612081D120819E510B4070341
:10044200E4F5101201D2AD0C7F041207F7AD0B7F59
:08045200071207F71207F3225D
:10053500C2B77590F0AF9075900FAE90EF2EFBF4AB
:100545006056E4FAEA90072F93B5031BEA90073F3C
:1005550093F56BFD7C0090074FE493FE740193FFC8
:100565001205F98E148F150ABA10D9E4F511F51292
:10057500E5152401FFE43514FEC3E5129FE5119E40
:100585005016B2B7AF6B120876AF6B12087605122C
:08059500E51270DC051180D8AD
:01059D00223B
:0A087600EFD3940040031F80F72227
:0F083F0020B00BB2B220B203E4F51330B0FD22AB
:10000300C2B320B222C2B77590F0AF9075900FAE15
:1000130090EF2EFFF4601074172513F8A607B2B300
:070023000513E590B40FFB8B
:01002A0022B3
:1003680020B176E4FBE5132401FFE433FEEBC39FE1
:10037800EE6480F8748098506074172BF8E6F56C7A
:10038800E4FAEA90072F93B56C1BEA90073F93F5C0
:100398006BFD7C0090074FE493FE740193FF1205F8
:1003A800F98E148F150ABA10D9E4F511F512E5156E
:1003B8002401FFE43514FEC3E5129FE5119E501693
:1003C800B2B7AF6B120876AF6B1208760512E5125A
:0903D80070DC051180D80B808C4B
:0103E10022F9
:10045A001207C91206547E037FE27BE87A03E4FDA1
:10046A00FC12059E7E007F2E7B147A00E4FDFC12AE
:10047A00059E7E047FCA7B147A00E4FDFC12059E69
:10048A007E057F357B647A00E4FDFC12059E7E08BA
:10049A007F3F7B327A00E4FDFC12059E7E007F03DB
:1004AA007B0F7A00E4FDFC12059E7E037F687B14B5
:1004BA007A00E4FDFC12059E1208841206AE80FB47
:0308590001670034
:1006AE00E4F56BE56B75F007A42427F8E6D3940008
:1006BE004032E56B75F007A42421F8E6FE08E6AAA1
:1006CE0006F912064EE56B75F007A42427F816E519
:1006DE006B75F007A42425F8E6FE08E64E7005AF0C
:1006EE006B120751056BE56BC3940A40B61208876F
:0306FE000208806F
:04059E008E6B8F6C65
:1005A200E4FFEF75F007A42421F8E6F58308E64599
:1005B200836009EFC3940A50030F80E6BF0A0675F1
:1005C20067017F0A22EF75F007A42421F8A66B08C1
:1005D200A66CEF75F007A42423F8A60408A605EF7D
:1005E20075F007A42425F8A60208A603EF75F00704
:0605F200A42427F8E4F642
:0105F80022E0
:10075100EF75F007A42421F8E6FC08E64C70077554
:100761006702D2008002C200EF75F007A42421F8CD
:10077100E4F608F6EF75F007A42423F8E4F608F68A
:10078100EF75F007A42425F8E4F608F6EF75F007F5
:08079100A42427F8E4F6A200FD
:01079900223D
:01088700224E
:040880004387012287
:10026B0002045AE493A3F8E493A34003F68001F24B
:10027B0008DFF48029E493A3F85407240CC8C33394
:10028B00C4540F4420C8834004F456800146F6DF63
:10029B00E4800B010204081020408090084EE47E9D
:1002AB00019360BCA3FF543F30E509541FFEE49358
:1002BB00A360010ECF54C025E060A840B8E493A31F
:1002CB00FAE493A3F8E493A3C8C582C8CAC583CA4A
:1002DB00F0A3C8C582C8CAC583CADFE9DEE780BE02
:01085C00009B
:1005F900BC000BBE0029EF8DF084FFADF022E4CCE6
:10060900F875F008EF2FFFEE33FEEC33FCEE9DECAE
:10061900984005FCEE9DFE0FD5F0E9E4CEFD22EDF4
:10062900F8F5F0EE8420D21CFEADF075F008EF2F3E
:10063900FFED33FD4007985006D5F0F222C398FD2F
:050649000FD5F0EA22CC
:06064E008A838982E47337
:00000001FF
