:0300000002025F9A
:0C025F00787FE4F6D8FD7581390202A614
:10062A00E4F512AF1212054C0512E512C394034009
:10063A00F2E4F53675C804F5C975CDF875CBF875C9
:09064A00CC3075CA30D2ADD2CA21
:010653002284
:0306A100D2AF22B3
:03002B000202EBE3
:1002EB00C0E0C0F0C0D075D000C000C004C005C0D5
:0102FB0007FB
:1002FC00C2CFE4FFEF75F007A42421F8E6FC08E672
:10030C004C6046EF75F007A42423F8E6FC08E64C95
:10031C007028EF75F007A42427F806EF75F007A4F2
:10032C002425F8E6FC08E6FD4C601EEF75F007A4EA
:10033C002423F8A60408A605800FEF75F007A42463
:0D034C0023F808E616187001160FBF03A76E
:0F035900D007D005D004D000D0D0D0F0D0E03203
:1005FC0020323031332D31322D31392054485520B1
:10060C00002020202031323A35303A303020202062
:0E061C0020001F1C1F1E1F1E1F1F1E1F1E1F43
:1005CD00C2A38F807F057E001205DED2A37F057E3C
:0105DD00001D
:1005DE00D3EF9400EE940040147D7D7C00ED1D70F1
:0D05EE00011CED4C70F7EF1F70E61E80E35E
:0105FB0022DD
:04068700EA2480FFE2
:08068B00C2A41205CDC2A32296
:05067A0012067F7F5510
:08067F00D2A41205CDC2A32292
:10049F00E4F508C2A3750B32750C0C75090D750DBB
:1004AF000C750F137510057F3812068B7F0C120613
:1004BF008B7F0612068B7F0112068B7F8012068BB5
:1004CF00E4FBEB9005FC93FF12067F1205DA0BBBE2
:1004DF000FF07FC012068BE4FBEB90060D93FF121B
:0904EF00067F1205DA0BBB0FF0C9
:0104F80022E1
:04000300AD0A7F0AB9
:10000700ED75F00A84FBED75F00A84AAF0EF24C0C1
:10001700FF12068BEB2430FF12067FEA2430FF0223
:02002700067F52
:04065400AD0F7F095E
:10065800ED75F00A84FBED75F00A84AAF0EF2480AA
:10066800FF12068BEB2430FF12067FEA2430FF02CC
:02067800067FFB
:0401D200AD107F0CE1
:1001D600AB05AA07BB010D1206877F5312067A7F6D
:1001E6004E12067FBB02121206877F4D12067F7FD4
:1001F6004F12067F7F4E12067FBB030D1206877FC6
:100206005412067A7F4512067FBB04121206877FB8
:100216005712067F7F4512067F7F4412067FBB0575
:100226000D1206877F5412067F7F4812067ABB0698
:10023600121206877F4612067F7F5212067F7F497B
:1002460012067FEB70121206877F5312067F7F54C9
:0902560012067F7F4112067F228F
:1003D900C2A520A065051130A0FD750801E511B47D
:1003E900010A7FCB12068B7F0F12068BE511B4022F
:1003F900057FC812068BE511B403057FC512068B6C
:10040900E511B404057F8C12068BE511B405057F4F
:100419008A12068BE511B406057F8712068BE51152
:10042900B407057F8412068BE511B4080DE4F511B4
:0B043900F5088508907F0C12068B224E
:10002E00E508640160030201D1E51170030201D1FC
:10003E0030A1030201121205DA30A10302011230BF
:10004E00A1FDE511B40112050AE50AB43C03E4F57D
:10005E000A1200037FCB12068BE511B40216050BB4
:10006E00E50BB43C03E4F50BAD0B7F071200077FE5
:10007E00C812068BE511B40316050CE50CB4180373
:10008E00E4F50CAD0C7F041200077FC512068BE55C
:10009E0011B404120510E510B40703E4F5101201B3
:1000AE00D27F8C12068BE51164057022050FE50DCB
:1000BE0090061D932401FFE433FEE50FB50707E418
:1000CE00B50603750F011206547F8912068BE511D2
:1000DE00B40616050DE50DB40D03750D01AD0D7FBE
:1000EE00061206587F8612068BE511B4071605090F
:1000FE00E509B46403E4F509AD097F031206587FE0
:10010E008312068B30A2030201D11205DA30A2034C
:10011E000201D130A2FDE511B40112150AE50AB4AF
:10012E00FF03750A3B1200037FCA12068BE511B45A
:10013E000216150BE50BB4FF03750B3BAD0B7F07DA
:10014E001200077FC712068BE511B40316150CE5D6
:10015E000CB4FF03750C17AD0C7F041200077FC49F
:10016E0012068BE511B404121510E510B4FF0375D9
:10017E0010071201D27F8C12068BE511B40513D530
:10018E000F08E50D90061D93F50F1206547F891288
:10019E00068BE511B40612D50D03750D0CAD0D7F52
:1001AE00061206587F8612068BE511B40715E5096F
:1001BE0070037509641509AD097F031206587F8314
:0401CE0012068B2268
:10036800E508706C050AE50A643C7061F50A050B3E
:10037800E50B643C7050F50B050CE50C6418703FF8
:10038800F50C050F0510E50F641F7025750F0105A5
:100398000DE50DB40D14750D010509E509B46403E7
:1003A800E4F509AD097F03120658AD0D7F06120664
:1003B80058120654E510B40703E4F5101201D2AD43
:1003C8000C7F04120007AD0B7F0712000712000311
:0103D8002202
:1005950012062A12049F7E037F687BE87A03E4FD36
:1005A500FC1204447E007F2E7B147A00E4FDFC12CD
:1005B50004447E037FD97B147A00E4FDFC120444D5
:0805C5001206A11204F980FBEB
:03069D0001360023
:1004F900E4F512E51275F007A42427F8E6D3940071
:100509004032E51275F007A42421F8E6FE08E6AAB0
:1005190006F9120693E51275F007A42427F816E5E3
:100529001275F007A42425F8E6FE08E64E7005AF1B
:100539001212054C0512E512C3940340B6120029A4
:030549000206990E
:040444008E128F1372
:10044800E4FFEF75F007A42421F8E6F58308E645F4
:10045800836009EFC3940350030F80E6BF0306755A
:1004680036017F0322EF75F007A42421F8A61208AD
:10047800A613EF75F007A42423F8A60408A605EF31
:1004880075F007A42425F8A60208A603EF75F0075F
:06049800A42427F8E4F69D
:01049E00223B
:10054C00EF75F007A42421F8E6FC08E64C7007755B
:10055C003602D2008002C200EF75F007A42421F805
:10056C00E4F608F6EF75F007A42423F8E4F608F691
:10057C00EF75F007A42425F8E4F608F6EF75F007FC
:08058C00A42427F8E4F6A20004
:010594002244
:0100290022B4
:040699004387012270
:10026B00020595E493A3F8E493A34003F68001F20F
:10027B0008DFF48029E493A3F85407240CC8C33394
:10028B00C4540F4420C8834004F456800146F6DF63
:10029B00E4800B010204081020408090069DE47E50
:1002AB00019360BCA3FF543F30E509541FFEE49358
:1002BB00A360010ECF54C025E060A840B8E493A31F
:1002CB00FAE493A3F8E493A3C8C582C8CAC583CA4A
:1002DB00F0A3C8C582C8CAC583CADFE9DEE780BE02
:0106A0000059
:060693008A838982E473F2
:00000001FF
